{
  "contractName": "Attestation",
  "abi": [
    {
      "constant": true,
      "inputs": [
        {
          "internalType": "uint256",
          "name": "",
          "type": "uint256"
        }
      ],
      "name": "attestations",
      "outputs": [
        {
          "internalType": "address",
          "name": "owner",
          "type": "address"
        },
        {
          "internalType": "string",
          "name": "name",
          "type": "string"
        },
        {
          "internalType": "string",
          "name": "email",
          "type": "string"
        },
        {
          "internalType": "string",
          "name": "phone",
          "type": "string"
        },
        {
          "internalType": "bool",
          "name": "verified",
          "type": "bool"
        },
        {
          "internalType": "string",
          "name": "relationship",
          "type": "string"
        },
        {
          "internalType": "string",
          "name": "credentials",
          "type": "string"
        }
      ],
      "payable": false,
      "stateMutability": "view",
      "type": "function"
    },
    {
      "constant": false,
      "inputs": [
        {
          "internalType": "string",
          "name": "_name",
          "type": "string"
        },
        {
          "internalType": "string",
          "name": "_email",
          "type": "string"
        },
        {
          "internalType": "string",
          "name": "_phone",
          "type": "string"
        },
        {
          "internalType": "bool",
          "name": "_verified",
          "type": "bool"
        },
        {
          "internalType": "string",
          "name": "_realtionship",
          "type": "string"
        },
        {
          "internalType": "string",
          "name": "_credentials",
          "type": "string"
        }
      ],
      "name": "setAttestion",
      "outputs": [],
      "payable": false,
      "stateMutability": "nonpayable",
      "type": "function"
    },
    {
      "constant": true,
      "inputs": [
        {
          "internalType": "uint256",
          "name": "_index",
          "type": "uint256"
        }
      ],
      "name": "getAttestation",
      "outputs": [
        {
          "internalType": "string",
          "name": "name",
          "type": "string"
        },
        {
          "internalType": "string",
          "name": "email",
          "type": "string"
        },
        {
          "internalType": "string",
          "name": "phone",
          "type": "string"
        },
        {
          "internalType": "bool",
          "name": "verified",
          "type": "bool"
        },
        {
          "internalType": "address",
          "name": "owner",
          "type": "address"
        },
        {
          "internalType": "string",
          "name": "relationship",
          "type": "string"
        },
        {
          "internalType": "string",
          "name": "credentials",
          "type": "string"
        }
      ],
      "payable": false,
      "stateMutability": "view",
      "type": "function"
    },
    {
      "constant": true,
      "inputs": [],
      "name": "getCounter",
      "outputs": [
        {
          "internalType": "uint256",
          "name": "",
          "type": "uint256"
        }
      ],
      "payable": false,
      "stateMutability": "view",
      "type": "function"
    }
  ],
  "bytecode": "0x608060405234801561001057600080fd5b506111f2806100206000396000f3fe608060405234801561001057600080fd5b506004361061004c5760003560e01c806301daf26b1461005157806329be4db2146102e65780636a12bc2a1461057b5780638ada066e1461089e575b600080fd5b61007d6004803603602081101561006757600080fd5b81019080803590602001909291905050506108bc565b604051808873ffffffffffffffffffffffffffffffffffffffff1673ffffffffffffffffffffffffffffffffffffffff16815260200180602001806020018060200187151515158152602001806020018060200186810386528c818151815260200191508051906020019080838360005b838110156101095780820151818401526020810190506100ee565b50505050905090810190601f1680156101365780820380516001836020036101000a031916815260200191505b5086810385528b818151815260200191508051906020019080838360005b8381101561016f578082015181840152602081019050610154565b50505050905090810190601f16801561019c5780820380516001836020036101000a031916815260200191505b5086810384528a818151815260200191508051906020019080838360005b838110156101d55780820151818401526020810190506101ba565b50505050905090810190601f1680156102025780820380516001836020036101000a031916815260200191505b50868103835288818151815260200191508051906020019080838360005b8381101561023b578082015181840152602081019050610220565b50505050905090810190601f1680156102685780820380516001836020036101000a031916815260200191505b50868103825287818151815260200191508051906020019080838360005b838110156102a1578082015181840152602081019050610286565b50505050905090810190601f1680156102ce5780820380516001836020036101000a031916815260200191505b509c5050505050505050505050505060405180910390f35b610312600480360360208110156102fc57600080fd5b8101908080359060200190929190505050610c23565b60405180806020018060200180602001881515151581526020018773ffffffffffffffffffffffffffffffffffffffff1673ffffffffffffffffffffffffffffffffffffffff168152602001806020018060200186810386528d818151815260200191508051906020019080838360005b8381101561039e578082015181840152602081019050610383565b50505050905090810190601f1680156103cb5780820380516001836020036101000a031916815260200191505b5086810385528c818151815260200191508051906020019080838360005b838110156104045780820151818401526020810190506103e9565b50505050905090810190601f1680156104315780820380516001836020036101000a031916815260200191505b5086810384528b818151815260200191508051906020019080838360005b8381101561046a57808201518184015260208101905061044f565b50505050905090810190601f1680156104975780820380516001836020036101000a031916815260200191505b50868103835288818151815260200191508051906020019080838360005b838110156104d05780820151818401526020810190506104b5565b50505050905090810190601f1680156104fd5780820380516001836020036101000a031916815260200191505b50868103825287818151815260200191508051906020019080838360005b8381101561053657808201518184015260208101905061051b565b50505050905090810190601f1680156105635780820380516001836020036101000a031916815260200191505b509c5050505050505050505050505060405180910390f35b61089c600480360360c081101561059157600080fd5b81019080803590602001906401000000008111156105ae57600080fd5b8201836020820111156105c057600080fd5b803590602001918460018302840111640100000000831117156105e257600080fd5b91908080601f016020809104026020016040519081016040528093929190818152602001838380828437600081840152601f19601f8201169050808301925050505050505091929192908035906020019064010000000081111561064557600080fd5b82018360208201111561065757600080fd5b8035906020019184600183028401116401000000008311171561067957600080fd5b91908080601f016020809104026020016040519081016040528093929190818152602001838380828437600081840152601f19601f820116905080830192505050505050509192919290803590602001906401000000008111156106dc57600080fd5b8201836020820111156106ee57600080fd5b8035906020019184600183028401116401000000008311171561071057600080fd5b91908080601f016020809104026020016040519081016040528093929190818152602001838380828437600081840152601f19601f8201169050808301925050505050505091929192908035151590602001909291908035906020019064010000000081111561077f57600080fd5b82018360208201111561079157600080fd5b803590602001918460018302840111640100000000831117156107b357600080fd5b91908080601f016020809104026020016040519081016040528093929190818152602001838380828437600081840152601f19601f8201169050808301925050505050505091929192908035906020019064010000000081111561081657600080fd5b82018360208201111561082857600080fd5b8035906020019184600183028401116401000000008311171561084a57600080fd5b91908080601f016020809104026020016040519081016040528093929190818152602001838380828437600081840152601f19601f820116905080830192505050505050509192919290505050611006565b005b6108a661110e565b6040518082815260200191505060405180910390f35b60006020528060005260406000206000915090508060000160009054906101000a900473ffffffffffffffffffffffffffffffffffffffff1690806001018054600181600116156101000203166002900480601f01602080910402602001604051908101604052809291908181526020018280546001816001161561010002031660029004801561098e5780601f106109635761010080835404028352916020019161098e565b820191906000526020600020905b81548152906001019060200180831161097157829003601f168201915b505050505090806002018054600181600116156101000203166002900480601f016020809104026020016040519081016040528092919081815260200182805460018160011615610100020316600290048015610a2c5780601f10610a0157610100808354040283529160200191610a2c565b820191906000526020600020905b815481529060010190602001808311610a0f57829003601f168201915b505050505090806003018054600181600116156101000203166002900480601f016020809104026020016040519081016040528092919081815260200182805460018160011615610100020316600290048015610aca5780601f10610a9f57610100808354040283529160200191610aca565b820191906000526020600020905b815481529060010190602001808311610aad57829003601f168201915b5050505050908060040160009054906101000a900460ff1690806005018054600181600116156101000203166002900480601f016020809104026020016040519081016040528092919081815260200182805460018160011615610100020316600290048015610b7b5780601f10610b5057610100808354040283529160200191610b7b565b820191906000526020600020905b815481529060010190602001808311610b5e57829003601f168201915b505050505090806006018054600181600116156101000203166002900480601f016020809104026020016040519081016040528092919081815260200182805460018160011615610100020316600290048015610c195780601f10610bee57610100808354040283529160200191610c19565b820191906000526020600020905b815481529060010190602001808311610bfc57829003601f168201915b5050505050905087565b606080606060008060608060008089815260200190815260200160002060000160009054906101000a900473ffffffffffffffffffffffffffffffffffffffff1692506000808981526020019081526020016000206001018054600181600116156101000203166002900480601f016020809104026020016040519081016040528092919081815260200182805460018160011615610100020316600290048015610d0f5780601f10610ce457610100808354040283529160200191610d0f565b820191906000526020600020905b815481529060010190602001808311610cf257829003601f168201915b505050505096506000808981526020019081526020016000206002018054600181600116156101000203166002900480601f016020809104026020016040519081016040528092919081815260200182805460018160011615610100020316600290048015610dbf5780601f10610d9457610100808354040283529160200191610dbf565b820191906000526020600020905b815481529060010190602001808311610da257829003601f168201915b505050505095506000808981526020019081526020016000206003018054600181600116156101000203166002900480601f016020809104026020016040519081016040528092919081815260200182805460018160011615610100020316600290048015610e6f5780601f10610e4457610100808354040283529160200191610e6f565b820191906000526020600020905b815481529060010190602001808311610e5257829003601f168201915b5050505050945060008089815260200190815260200160002060040160009054906101000a900460ff1693506000808981526020019081526020016000206005018054600181600116156101000203166002900480601f016020809104026020016040519081016040528092919081815260200182805460018160011615610100020316600290048015610f445780601f10610f1957610100808354040283529160200191610f44565b820191906000526020600020905b815481529060010190602001808311610f2757829003601f168201915b505050505091506000808981526020019081526020016000206006018054600181600116156101000203166002900480601f016020809104026020016040519081016040528092919081815260200182805460018160011615610100020316600290048015610ff45780601f10610fc957610100808354040283529160200191610ff4565b820191906000526020600020905b815481529060010190602001808311610fd757829003601f168201915b50505050509050919395979092949650565b6001805401600181905550600080600060015481526020019081526020016000209050338160000160006101000a81548173ffffffffffffffffffffffffffffffffffffffff021916908373ffffffffffffffffffffffffffffffffffffffff16021790555086816001019080519060200190611084929190611118565b508581600201908051906020019061109d929190611118565b50848160030190805190602001906110b6929190611118565b50838160040160006101000a81548160ff021916908315150217905550828160050190805190602001906110eb929190611118565b5081816006019080519060200190611104929190611118565b5050505050505050565b6000600154905090565b828054600181600116156101000203166002900490600052602060002090601f016020900481019282601f1061115957805160ff1916838001178555611187565b82800160010185558215611187579182015b8281111561118657825182559160200191906001019061116b565b5b5090506111949190611198565b5090565b6111ba91905b808211156111b657600081600090555060010161119e565b5090565b9056fea265627a7a72315820e5fa0f5c98b18d003be9f971c5fa229000dde693ac328da2d6514f6599326f2e64736f6c63430005100032",
  "source": "pragma solidity >=0.5.16;\n\ncontract Attestation {\n\n    struct Attestant {\n        address owner;\n        string name;\n        string email;\n        string phone;\n        bool verified;\n        string relationship;\n        string credentials;\n    }\n\n    mapping(uint256 => Attestant) public attestations;\n    uint256 att_ctr;\n\n    function setAttestion(string memory _name, string memory _email, \n            string memory _phone, bool _verified, \n            string memory _realtionship, string memory _credentials) public {\n        att_ctr = att_ctr + 1;\n        Attestant storage upload = attestations[att_ctr];\n        upload.owner = msg.sender;\n        upload.name = _name;\n        upload.email = _email;\n        upload.phone = _phone;\n        upload.verified = _verified;\n        upload.relationship = _realtionship;\n        upload.credentials = _credentials;\n    }\n\n    function getAttestation(uint256 _index)\n        public view returns (\n            string memory name, string memory email, \n            string memory phone, bool verified, address owner,\n            string memory relationship, string memory credentials\n        ) {\n            owner = attestations[_index].owner;\n            name = attestations[_index].name;\n            email = attestations[_index].email;\n            phone = attestations[_index].phone;\n            verified = attestations[_index].verified;\n            relationship = attestations[_index].relationship;\n            credentials = attestations[_index].credentials;\n        }\n\n    function getCounter() \n    public view returns(uint256) { \n        return att_ctr; \n    }\n}",
  "sourcePath": "/home/nash/Documents/Projects/github.com/identity-wallet/wallet-web-app/contracts/Attestation.sol",
  "compiler": {
    "name": "solc",
    "version": "0.5.16+commit.9c3226ce.Emscripten.clang"
  },
  "schemaVersion": "3.2.3",
  "updatedAt": "2020-08-14T13:55:12.721Z",
  "networkType": "ethereum",
  "devdoc": {
    "methods": {}
  },
  "userdoc": {
    "methods": {}
  }
}