{
  "contractName": "Attestation",
  "abi": [
    {
      "constant": true,
      "inputs": [
        {
          "internalType": "uint256",
          "name": "",
          "type": "uint256"
        }
      ],
      "name": "attestations",
      "outputs": [
        {
          "internalType": "address",
          "name": "owner",
          "type": "address"
        },
        {
          "internalType": "string",
          "name": "name",
          "type": "string"
        },
        {
          "internalType": "string",
          "name": "email",
          "type": "string"
        },
        {
          "internalType": "string",
          "name": "phone",
          "type": "string"
        },
        {
          "internalType": "bool",
          "name": "verified",
          "type": "bool"
        },
        {
          "internalType": "string",
          "name": "relationship",
          "type": "string"
        }
      ],
      "payable": false,
      "stateMutability": "view",
      "type": "function"
    },
    {
      "constant": false,
      "inputs": [
        {
          "internalType": "string",
          "name": "_name",
          "type": "string"
        },
        {
          "internalType": "string",
          "name": "_email",
          "type": "string"
        },
        {
          "internalType": "string",
          "name": "_phone",
          "type": "string"
        },
        {
          "internalType": "bool",
          "name": "_verified",
          "type": "bool"
        },
        {
          "internalType": "string",
          "name": "_realtionship",
          "type": "string"
        },
        {
          "components": [
            {
              "internalType": "string",
              "name": "name",
              "type": "string"
            }
          ],
          "internalType": "struct Attestation.credentials[5]",
          "name": "_credential",
          "type": "tuple[5]"
        }
      ],
      "name": "setAttestion",
      "outputs": [],
      "payable": false,
      "stateMutability": "nonpayable",
      "type": "function"
    },
    {
      "constant": true,
      "inputs": [
        {
          "internalType": "uint256",
          "name": "_index",
          "type": "uint256"
        }
      ],
      "name": "getAttestation",
      "outputs": [
        {
          "internalType": "string",
          "name": "name",
          "type": "string"
        },
        {
          "internalType": "string",
          "name": "email",
          "type": "string"
        },
        {
          "internalType": "string",
          "name": "phone",
          "type": "string"
        },
        {
          "internalType": "bool",
          "name": "verified",
          "type": "bool"
        },
        {
          "internalType": "address",
          "name": "owner",
          "type": "address"
        },
        {
          "internalType": "string",
          "name": "relationship",
          "type": "string"
        },
        {
          "components": [
            {
              "internalType": "string",
              "name": "name",
              "type": "string"
            }
          ],
          "internalType": "struct Attestation.credentials[5]",
          "name": "credential",
          "type": "tuple[5]"
        }
      ],
      "payable": false,
      "stateMutability": "view",
      "type": "function"
    }
  ],
  "bytecode": "0x608060405234801561001057600080fd5b506112ac806100206000396000f3fe608060405234801561001057600080fd5b50600436106100415760003560e01c806301daf26b1461004657806329be4db21461007b5780633470bfa0146100b1575b600080fd5b610060600480360361005b9190810190610d80565b6100cd565b60405161007296959493929190610f65565b60405180910390f35b61009560048036036100909190810190610d80565b610396565b6040516100a89796959493929190610fe2565b60405180910390f35b6100cb60048036036100c69190810190610c7f565b6107d8565b005b60006020528060005260406000206000915090508060000160009054906101000a900473ffffffffffffffffffffffffffffffffffffffff1690806001018054600181600116156101000203166002900480601f01602080910402602001604051908101604052809291908181526020018280546001816001161561010002031660029004801561019f5780601f106101745761010080835404028352916020019161019f565b820191906000526020600020905b81548152906001019060200180831161018257829003601f168201915b505050505090806002018054600181600116156101000203166002900480601f01602080910402602001604051908101604052809291908181526020018280546001816001161561010002031660029004801561023d5780601f106102125761010080835404028352916020019161023d565b820191906000526020600020905b81548152906001019060200180831161022057829003601f168201915b505050505090806003018054600181600116156101000203166002900480601f0160208091040260200160405190810160405280929190818152602001828054600181600116156101000203166002900480156102db5780601f106102b0576101008083540402835291602001916102db565b820191906000526020600020905b8154815290600101906020018083116102be57829003601f168201915b5050505050908060040160009054906101000a900460ff1690806005018054600181600116156101000203166002900480601f01602080910402602001604051908101604052809291908181526020018280546001816001161561010002031660029004801561038c5780601f106103615761010080835404028352916020019161038c565b820191906000526020600020905b81548152906001019060200180831161036f57829003601f168201915b5050505050905086565b606080606060008060606103a8610993565b60008089815260200190815260200160002060000160009054906101000a900473ffffffffffffffffffffffffffffffffffffffff1692506000808981526020019081526020016000206001018054600181600116156101000203166002900480601f0160208091040260200160405190810160405280929190818152602001828054600181600116156101000203166002900480156104895780601f1061045e57610100808354040283529160200191610489565b820191906000526020600020905b81548152906001019060200180831161046c57829003601f168201915b505050505096506000808981526020019081526020016000206002018054600181600116156101000203166002900480601f0160208091040260200160405190810160405280929190818152602001828054600181600116156101000203166002900480156105395780601f1061050e57610100808354040283529160200191610539565b820191906000526020600020905b81548152906001019060200180831161051c57829003601f168201915b505050505095506000808981526020019081526020016000206003018054600181600116156101000203166002900480601f0160208091040260200160405190810160405280929190818152602001828054600181600116156101000203166002900480156105e95780601f106105be576101008083540402835291602001916105e9565b820191906000526020600020905b8154815290600101906020018083116105cc57829003601f168201915b5050505050945060008089815260200190815260200160002060040160009054906101000a900460ff1693506000808981526020019081526020016000206005018054600181600116156101000203166002900480601f0160208091040260200160405190810160405280929190818152602001828054600181600116156101000203166002900480156106be5780601f10610693576101008083540402835291602001916106be565b820191906000526020600020905b8154815290600101906020018083116106a157829003601f168201915b5050505050915060008090505b60058160ff1610156107cc576000808a81526020019081526020016000206006018160ff16600581106106fa57fe5b01604051806020016040529081600082018054600181600116156101000203166002900480601f01602080910402602001604051908101604052809291908181526020018280546001816001161561010002031660029004801561079f5780601f106107745761010080835404028352916020019161079f565b820191906000526020600020905b81548152906001019060200180831161078257829003601f168201915b505050505081525050828260ff16600581106107b757fe5b602002018190525080806001019150506106cb565b50919395979092949650565b6107ed6001805461093e90919063ffffffff16565b600181905550600080600060015481526020019081526020016000209050338160000160006101000a81548173ffffffffffffffffffffffffffffffffffffffff021916908373ffffffffffffffffffffffffffffffffffffffff160217905550868160010190805190602001906108669291906109c0565b508581600201908051906020019061087f9291906109c0565b50848160030190805190602001906108989291906109c0565b50838160040160006101000a81548160ff021916908315150217905550828160050190805190602001906108cd9291906109c0565b5060008090505b60058160ff16101561093457828160ff16600581106108ef57fe5b6020020151826006018260ff166005811061090657fe5b016000820151816000019080519060200190610923929190610a40565b5090505080806001019150506108d4565b5050505050505050565b600080828401905083811015610989576040517f08c379a000000000000000000000000000000000000000000000000000000000815260040161098090611074565b60405180910390fd5b8091505092915050565b6040518060a001604052806005905b6109aa610ac0565b8152602001906001900390816109a25790505090565b828054600181600116156101000203166002900490600052602060002090601f016020900481019282601f10610a0157805160ff1916838001178555610a2f565b82800160010185558215610a2f579182015b82811115610a2e578251825591602001919060010190610a13565b5b509050610a3c9190610ad3565b5090565b828054600181600116156101000203166002900490600052602060002090601f016020900481019282601f10610a8157805160ff1916838001178555610aaf565b82800160010185558215610aaf579182015b82811115610aae578251825591602001919060010190610a93565b5b509050610abc9190610ad3565b5090565b6040518060200160405280606081525090565b610af591905b80821115610af1576000816000905550600101610ad9565b5090565b90565b600082601f830112610b0957600080fd5b6005610b1c610b17826110c1565b611094565b9150818360005b83811015610b535781358601610b398882610c1a565b845260208401935060208301925050600181019050610b23565b5050505092915050565b600081359050610b6c8161123b565b92915050565b600082601f830112610b8357600080fd5b8135610b96610b91826110e3565b611094565b91508082526020830160208301858383011115610bb257600080fd5b610bbd8382846111e8565b50505092915050565b600082601f830112610bd757600080fd5b8135610bea610be58261110f565b611094565b91508082526020830160208301858383011115610c0657600080fd5b610c118382846111e8565b50505092915050565b600060208284031215610c2c57600080fd5b610c366020611094565b9050600082013567ffffffffffffffff811115610c5257600080fd5b610c5e84828501610b72565b60008301525092915050565b600081359050610c7981611252565b92915050565b60008060008060008060c08789031215610c9857600080fd5b600087013567ffffffffffffffff811115610cb257600080fd5b610cbe89828a01610bc6565b965050602087013567ffffffffffffffff811115610cdb57600080fd5b610ce789828a01610bc6565b955050604087013567ffffffffffffffff811115610d0457600080fd5b610d1089828a01610bc6565b9450506060610d2189828a01610b5d565b935050608087013567ffffffffffffffff811115610d3e57600080fd5b610d4a89828a01610bc6565b92505060a087013567ffffffffffffffff811115610d6757600080fd5b610d7389828a01610af8565b9150509295509295509295565b600060208284031215610d9257600080fd5b6000610da084828501610c6a565b91505092915050565b6000610db58383610f3b565b905092915050565b610dc6816111a0565b82525050565b6000610dd782611145565b610de18185611173565b935083602082028501610df38561113b565b8060005b85811015610e2f5784840389528151610e108582610da9565b9450610e1b83611166565b925060208a01995050600181019050610df7565b50829750879550505050505092915050565b610e4a816111b2565b82525050565b6000610e5b8261115b565b610e65818561118f565b9350610e758185602086016111f7565b610e7e8161122a565b840191505092915050565b6000610e9482611150565b610e9e818561117e565b9350610eae8185602086016111f7565b610eb78161122a565b840191505092915050565b6000610ecd82611150565b610ed7818561118f565b9350610ee78185602086016111f7565b610ef08161122a565b840191505092915050565b6000610f08601b8361118f565b91507f536166654d6174683a206164646974696f6e206f766572666c6f7700000000006000830152602082019050919050565b60006020830160008301518482036000860152610f588282610e89565b9150508091505092915050565b600060c082019050610f7a6000830189610dbd565b8181036020830152610f8c8188610ec2565b90508181036040830152610fa08187610ec2565b90508181036060830152610fb48186610ec2565b9050610fc36080830185610e41565b81810360a0830152610fd58184610ec2565b9050979650505050505050565b600060e0820190508181036000830152610ffc818a610e50565b905081810360208301526110108189610e50565b905081810360408301526110248188610e50565b90506110336060830187610e41565b6110406080830186610dbd565b81810360a08301526110528185610e50565b905081810360c08301526110668184610dcc565b905098975050505050505050565b6000602082019050818103600083015261108d81610efb565b9050919050565b6000604051905081810181811067ffffffffffffffff821117156110b757600080fd5b8060405250919050565b600067ffffffffffffffff8211156110d857600080fd5b602082029050919050565b600067ffffffffffffffff8211156110fa57600080fd5b601f19601f8301169050602081019050919050565b600067ffffffffffffffff82111561112657600080fd5b601f19601f8301169050602081019050919050565b6000819050919050565b600060059050919050565b600081519050919050565b600081519050919050565b6000602082019050919050565b600081905092915050565b600082825260208201905092915050565b600082825260208201905092915050565b60006111ab826111be565b9050919050565b60008115159050919050565b600073ffffffffffffffffffffffffffffffffffffffff82169050919050565b6000819050919050565b82818337600083830152505050565b60005b838110156112155780820151818401526020810190506111fa565b83811115611224576000848401525b50505050565b6000601f19601f8301169050919050565b611244816111b2565b811461124f57600080fd5b50565b61125b816111de565b811461126657600080fd5b5056fea365627a7a7231582042f409da8a2603a4955aa9bc0d71983fbf3245b7a65cc42f1630613a93ac7b3c6c6578706572696d656e74616cf564736f6c63430005100040",
  "source": "pragma solidity 0.5.16;\npragma experimental ABIEncoderV2;\nimport \"@openzeppelin/contracts/token/ERC721/ERC721Full.sol\";\n\ncontract Attestation {\n    using SafeMath for uint256;\n\n    struct credentials {\n        string name;\n    }\n\n    struct Attestant {\n        address owner;\n        string name;\n        string email;\n        string phone;\n        bool verified;\n        string relationship;\n        credentials[5] credential;\n    }\n\n    mapping(uint256 => Attestant) public attestations;\n    uint256 att_ctr;\n\n    function setAttestion(string memory _name, string memory _email, \n            string memory _phone, bool _verified, string memory _realtionship, credentials[5] memory _credential) public {\n        att_ctr = att_ctr.add(1);\n        Attestant storage upload = attestations[att_ctr];\n        upload.owner = msg.sender;\n        upload.name = _name;\n        upload.email = _email;\n        upload.phone = _phone;\n        upload.verified = _verified;\n        upload.relationship = _realtionship;\n        uint8 x = 0;\n        while(x < _credential.length) {\n            upload.credential[x] = _credential[x];\n            x++;\n        }\n    }\n\n    function getAttestation(uint256 _index)\n        public view returns (\n            string memory name, string memory email, \n            string memory phone, bool verified, address owner,\n            string memory relationship, credentials[5] memory credential\n        ) {\n            owner = attestations[_index].owner;\n            name = attestations[_index].name;\n            email = attestations[_index].email;\n            phone = attestations[_index].phone;\n            verified = attestations[_index].verified;\n            relationship = attestations[_index].relationship;\n            uint8 x = 0;\n            while(x < credential.length) {\n                credential[x] = attestations[_index].credential[x];\n                x++;\n            }\n        }\n}",
  "sourcePath": "/home/nash/Documents/Projects/Blockchain/Project/identity-wallet/wallet-web-app/contracts/Attestation.sol",
  "compiler": {
    "name": "solc",
    "version": "0.5.16+commit.9c3226ce.Emscripten.clang"
  },
  "schemaVersion": "3.0.23",
  "updatedAt": "2020-03-28T12:10:34.488Z",
  "networkType": "ethereum",
  "devdoc": {
    "methods": {}
  },
  "userdoc": {
    "methods": {}
  }
}