{
  "contractName": "CredentialHandler",
  "abi": [
    {
      "constant": true,
      "inputs": [
        {
          "internalType": "uint256",
          "name": "",
          "type": "uint256"
        }
      ],
      "name": "credentials",
      "outputs": [
        {
          "internalType": "address",
          "name": "owner",
          "type": "address"
        },
        {
          "internalType": "string",
          "name": "name",
          "type": "string"
        },
        {
          "internalType": "string",
          "name": "email",
          "type": "string"
        },
        {
          "internalType": "string",
          "name": "phone",
          "type": "string"
        },
        {
          "internalType": "bool",
          "name": "active",
          "type": "bool"
        },
        {
          "internalType": "string",
          "name": "fileHash",
          "type": "string"
        },
        {
          "internalType": "string",
          "name": "caption",
          "type": "string"
        },
        {
          "internalType": "string",
          "name": "token",
          "type": "string"
        }
      ],
      "payable": false,
      "stateMutability": "view",
      "type": "function"
    },
    {
      "constant": false,
      "inputs": [
        {
          "internalType": "string",
          "name": "_name",
          "type": "string"
        },
        {
          "internalType": "string",
          "name": "_email",
          "type": "string"
        },
        {
          "internalType": "string",
          "name": "_phone",
          "type": "string"
        },
        {
          "internalType": "bool",
          "name": "_active",
          "type": "bool"
        },
        {
          "internalType": "string",
          "name": "_fileHash",
          "type": "string"
        },
        {
          "internalType": "string",
          "name": "_caption",
          "type": "string"
        },
        {
          "internalType": "string",
          "name": "_token",
          "type": "string"
        }
      ],
      "name": "setCredential",
      "outputs": [],
      "payable": false,
      "stateMutability": "nonpayable",
      "type": "function"
    },
    {
      "constant": true,
      "inputs": [
        {
          "internalType": "uint256",
          "name": "_index",
          "type": "uint256"
        }
      ],
      "name": "getCredential",
      "outputs": [
        {
          "internalType": "string",
          "name": "name",
          "type": "string"
        },
        {
          "internalType": "string",
          "name": "email",
          "type": "string"
        },
        {
          "internalType": "string",
          "name": "phone",
          "type": "string"
        },
        {
          "internalType": "bool",
          "name": "active",
          "type": "bool"
        },
        {
          "internalType": "string",
          "name": "file",
          "type": "string"
        },
        {
          "internalType": "string",
          "name": "caption",
          "type": "string"
        },
        {
          "internalType": "string",
          "name": "token",
          "type": "string"
        },
        {
          "internalType": "address",
          "name": "owner",
          "type": "address"
        }
      ],
      "payable": false,
      "stateMutability": "view",
      "type": "function"
    },
    {
      "constant": false,
      "inputs": [
        {
          "internalType": "uint256",
          "name": "_index",
          "type": "uint256"
        }
      ],
      "name": "revokeToken",
      "outputs": [],
      "payable": false,
      "stateMutability": "nonpayable",
      "type": "function"
    },
    {
      "constant": true,
      "inputs": [],
      "name": "getCounter",
      "outputs": [
        {
          "internalType": "uint256",
          "name": "",
          "type": "uint256"
        }
      ],
      "payable": false,
      "stateMutability": "view",
      "type": "function"
    }
  ],
  "bytecode": "0x608060405234801561001057600080fd5b506115ce806100206000396000f3fe608060405234801561001057600080fd5b50600436106100575760003560e01c80637dc9e79b1461005c5780638ada066e1461008a5780638dd18d2d146100a8578063e0574e3f146103a9578063e4e925c8146106aa575b600080fd5b6100886004803603602081101561007257600080fd5b8101908080359060200190929190505050610a64565b005b610092610a95565b6040518082815260200191505060405180910390f35b6100d4600480360360208110156100be57600080fd5b8101908080359060200190929190505050610a9f565b60405180806020018060200180602001891515151581526020018060200180602001806020018873ffffffffffffffffffffffffffffffffffffffff1673ffffffffffffffffffffffffffffffffffffffff16815260200187810387528f818151815260200191508051906020019080838360005b83811015610164578082015181840152602081019050610149565b50505050905090810190601f1680156101915780820380516001836020036101000a031916815260200191505b5087810386528e818151815260200191508051906020019080838360005b838110156101ca5780820151818401526020810190506101af565b50505050905090810190601f1680156101f75780820380516001836020036101000a031916815260200191505b5087810385528d818151815260200191508051906020019080838360005b83811015610230578082015181840152602081019050610215565b50505050905090810190601f16801561025d5780820380516001836020036101000a031916815260200191505b5087810384528b818151815260200191508051906020019080838360005b8381101561029657808201518184015260208101905061027b565b50505050905090810190601f1680156102c35780820380516001836020036101000a031916815260200191505b5087810383528a818151815260200191508051906020019080838360005b838110156102fc5780820151818401526020810190506102e1565b50505050905090810190601f1680156103295780820380516001836020036101000a031916815260200191505b50878103825289818151815260200191508051906020019080838360005b83811015610362578082015181840152602081019050610347565b50505050905090810190601f16801561038f5780820380516001836020036101000a031916815260200191505b509e50505050505050505050505050505060405180910390f35b6103d5600480360360208110156103bf57600080fd5b8101908080359060200190929190505050610f35565b604051808973ffffffffffffffffffffffffffffffffffffffff1673ffffffffffffffffffffffffffffffffffffffff1681526020018060200180602001806020018815151515815260200180602001806020018060200187810387528e818151815260200191508051906020019080838360005b8381101561046557808201518184015260208101905061044a565b50505050905090810190601f1680156104925780820380516001836020036101000a031916815260200191505b5087810386528d818151815260200191508051906020019080838360005b838110156104cb5780820151818401526020810190506104b0565b50505050905090810190601f1680156104f85780820380516001836020036101000a031916815260200191505b5087810385528c818151815260200191508051906020019080838360005b83811015610531578082015181840152602081019050610516565b50505050905090810190601f16801561055e5780820380516001836020036101000a031916815260200191505b5087810384528a818151815260200191508051906020019080838360005b8381101561059757808201518184015260208101905061057c565b50505050905090810190601f1680156105c45780820380516001836020036101000a031916815260200191505b50878103835289818151815260200191508051906020019080838360005b838110156105fd5780820151818401526020810190506105e2565b50505050905090810190601f16801561062a5780820380516001836020036101000a031916815260200191505b50878103825288818151815260200191508051906020019080838360005b83811015610663578082015181840152602081019050610648565b50505050905090810190601f1680156106905780820380516001836020036101000a031916815260200191505b509e50505050505050505050505050505060405180910390f35b610a62600480360360e08110156106c057600080fd5b81019080803590602001906401000000008111156106dd57600080fd5b8201836020820111156106ef57600080fd5b8035906020019184600183028401116401000000008311171561071157600080fd5b91908080601f016020809104026020016040519081016040528093929190818152602001838380828437600081840152601f19601f8201169050808301925050505050505091929192908035906020019064010000000081111561077457600080fd5b82018360208201111561078657600080fd5b803590602001918460018302840111640100000000831117156107a857600080fd5b91908080601f016020809104026020016040519081016040528093929190818152602001838380828437600081840152601f19601f8201169050808301925050505050505091929192908035906020019064010000000081111561080b57600080fd5b82018360208201111561081d57600080fd5b8035906020019184600183028401116401000000008311171561083f57600080fd5b91908080601f016020809104026020016040519081016040528093929190818152602001838380828437600081840152601f19601f820116905080830192505050505050509192919290803515159060200190929190803590602001906401000000008111156108ae57600080fd5b8201836020820111156108c057600080fd5b803590602001918460018302840111640100000000831117156108e257600080fd5b91908080601f016020809104026020016040519081016040528093929190818152602001838380828437600081840152601f19601f8201169050808301925050505050505091929192908035906020019064010000000081111561094557600080fd5b82018360208201111561095757600080fd5b8035906020019184600183028401116401000000008311171561097957600080fd5b91908080601f016020809104026020016040519081016040528093929190818152602001838380828437600081840152601f19601f820116905080830192505050505050509192919290803590602001906401000000008111156109dc57600080fd5b8201836020820111156109ee57600080fd5b80359060200191846001830284011164010000000083111715610a1057600080fd5b91908080601f016020809104026020016040519081016040528093929190818152602001838380828437600081840152601f19601f82011690508083019250505050505050919291929050505061133a565b005b600080600083815260200190815260200160002060040160006101000a81548160ff02191690831515021790555050565b6000600154905090565b60608060606000606080606060008060008a815260200190815260200160002060000160009054906101000a900473ffffffffffffffffffffffffffffffffffffffff1690506000808a81526020019081526020016000206001018054600181600116156101000203166002900480601f016020809104026020016040519081016040528092919081815260200182805460018160011615610100020316600290048015610b8e5780601f10610b6357610100808354040283529160200191610b8e565b820191906000526020600020905b815481529060010190602001808311610b7157829003601f168201915b505050505097506000808a81526020019081526020016000206002018054600181600116156101000203166002900480601f016020809104026020016040519081016040528092919081815260200182805460018160011615610100020316600290048015610c3e5780601f10610c1357610100808354040283529160200191610c3e565b820191906000526020600020905b815481529060010190602001808311610c2157829003601f168201915b505050505096506000808a81526020019081526020016000206003018054600181600116156101000203166002900480601f016020809104026020016040519081016040528092919081815260200182805460018160011615610100020316600290048015610cee5780601f10610cc357610100808354040283529160200191610cee565b820191906000526020600020905b815481529060010190602001808311610cd157829003601f168201915b505050505095506000808a815260200190815260200160002060040160009054906101000a900460ff1694506000808a81526020019081526020016000206005018054600181600116156101000203166002900480601f016020809104026020016040519081016040528092919081815260200182805460018160011615610100020316600290048015610dc35780601f10610d9857610100808354040283529160200191610dc3565b820191906000526020600020905b815481529060010190602001808311610da657829003601f168201915b505050505093506000808a81526020019081526020016000206006018054600181600116156101000203166002900480601f016020809104026020016040519081016040528092919081815260200182805460018160011615610100020316600290048015610e735780601f10610e4857610100808354040283529160200191610e73565b820191906000526020600020905b815481529060010190602001808311610e5657829003601f168201915b505050505092506000808a81526020019081526020016000206007018054600181600116156101000203166002900480601f016020809104026020016040519081016040528092919081815260200182805460018160011615610100020316600290048015610f235780601f10610ef857610100808354040283529160200191610f23565b820191906000526020600020905b815481529060010190602001808311610f0657829003601f168201915b50505050509150919395975091939597565b60006020528060005260406000206000915090508060000160009054906101000a900473ffffffffffffffffffffffffffffffffffffffff1690806001018054600181600116156101000203166002900480601f0160208091040260200160405190810160405280929190818152602001828054600181600116156101000203166002900480156110075780601f10610fdc57610100808354040283529160200191611007565b820191906000526020600020905b815481529060010190602001808311610fea57829003601f168201915b505050505090806002018054600181600116156101000203166002900480601f0160208091040260200160405190810160405280929190818152602001828054600181600116156101000203166002900480156110a55780601f1061107a576101008083540402835291602001916110a5565b820191906000526020600020905b81548152906001019060200180831161108857829003601f168201915b505050505090806003018054600181600116156101000203166002900480601f0160208091040260200160405190810160405280929190818152602001828054600181600116156101000203166002900480156111435780601f1061111857610100808354040283529160200191611143565b820191906000526020600020905b81548152906001019060200180831161112657829003601f168201915b5050505050908060040160009054906101000a900460ff1690806005018054600181600116156101000203166002900480601f0160208091040260200160405190810160405280929190818152602001828054600181600116156101000203166002900480156111f45780601f106111c9576101008083540402835291602001916111f4565b820191906000526020600020905b8154815290600101906020018083116111d757829003601f168201915b505050505090806006018054600181600116156101000203166002900480601f0160208091040260200160405190810160405280929190818152602001828054600181600116156101000203166002900480156112925780601f1061126757610100808354040283529160200191611292565b820191906000526020600020905b81548152906001019060200180831161127557829003601f168201915b505050505090806007018054600181600116156101000203166002900480601f0160208091040260200160405190810160405280929190818152602001828054600181600116156101000203166002900480156113305780601f1061130557610100808354040283529160200191611330565b820191906000526020600020905b81548152906001019060200180831161131357829003601f168201915b5050505050905088565b61134f6001805461146c90919063ffffffff16565b600181905550600080600060015481526020019081526020016000209050338160000160006101000a81548173ffffffffffffffffffffffffffffffffffffffff021916908373ffffffffffffffffffffffffffffffffffffffff160217905550878160010190805190602001906113c89291906114f4565b50868160020190805190602001906113e19291906114f4565b50858160030190805190602001906113fa9291906114f4565b50848160040160006101000a81548160ff0219169083151502179055508381600501908051906020019061142f9291906114f4565b50828160060190805190602001906114489291906114f4565b50818160070190805190602001906114619291906114f4565b505050505050505050565b6000808284019050838110156114ea576040517f08c379a000000000000000000000000000000000000000000000000000000000815260040180806020018281038252601b8152602001807f536166654d6174683a206164646974696f6e206f766572666c6f77000000000081525060200191505060405180910390fd5b8091505092915050565b828054600181600116156101000203166002900490600052602060002090601f016020900481019282601f1061153557805160ff1916838001178555611563565b82800160010185558215611563579182015b82811115611562578251825591602001919060010190611547565b5b5090506115709190611574565b5090565b61159691905b8082111561159257600081600090555060010161157a565b5090565b9056fea265627a7a72315820ddbca1883bd434e3865683a3c8d93f77e804a102076b114b9a2c0c537b081ca364736f6c63430005100032",
  "source": "pragma solidity 0.5.16;\nimport \"@openzeppelin/contracts/token/ERC721/ERC721Full.sol\";\n\ncontract CredentialHandler {\n\n    using SafeMath for uint256;\n\n    struct Credential {\n        address owner;\n        string name;\n        string email;\n        string phone;\n        bool active;\n        string fileHash;\n        string caption;\n        string token;\n    }\n\n    mapping(uint256 => Credential) public credentials;\n    uint256 credential_ctr;\n\n    function setCredential(string memory _name, string memory _email, \n            string memory _phone, bool _active, string memory _fileHash, \n            string memory _caption, string memory _token) public {\n        credential_ctr = credential_ctr.add(1);\n        Credential storage newbie = credentials[credential_ctr];\n        newbie.owner = msg.sender;\n        newbie.name = _name;\n        newbie.email = _email;\n        newbie.phone = _phone;\n        newbie.active = _active;\n        newbie.fileHash = _fileHash;\n        newbie.caption = _caption;\n        newbie.token = _token;\n    }\n\n    function getCredential(uint256 _index)\n        public view returns (\n            string memory name,\n            string memory email,\n            string memory phone,\n            bool active,\n            string memory file,\n            string memory caption,\n            string memory token,\n            address owner\n        ) {\n            owner = credentials[_index].owner;\n            name = credentials[_index].name;\n            email = credentials[_index].email;\n            phone = credentials[_index].phone;\n            active = credentials[_index].active;\n            file = credentials[_index].fileHash;\n            caption = credentials[_index].caption;\n            token = credentials[_index].token;\n        }\n\n    function revokeToken(uint256 _index) public {\n            credentials[_index].active = false;\n        }\n\n    function getCounter() \n    public view returns(uint256) { \n        return credential_ctr; \n    }\n}",
  "sourcePath": "/home/nash/Documents/Projects/Blockchain/Project/identity-wallet/wallet-web-app/contracts/CredentialHandler.sol",
  "compiler": {
    "name": "solc",
    "version": "0.5.16+commit.9c3226ce.Emscripten.clang"
  },
  "schemaVersion": "3.0.23",
  "updatedAt": "2020-03-28T12:10:34.067Z",
  "networkType": "ethereum",
  "devdoc": {
    "methods": {}
  },
  "userdoc": {
    "methods": {}
  }
}