{
  "contractName": "FileHandler",
  "abi": [
    {
      "anonymous": false,
      "inputs": [],
      "name": "NewFile",
      "type": "event"
    },
    {
      "constant": false,
      "inputs": [
        {
          "name": "_fileHash",
          "type": "string"
        },
        {
          "name": "_txtHash",
          "type": "string"
        }
      ],
      "name": "sendHash",
      "outputs": [],
      "payable": false,
      "stateMutability": "nonpayable",
      "type": "function"
    },
    {
      "constant": true,
      "inputs": [
        {
          "name": "_index",
          "type": "uint256"
        }
      ],
      "name": "getHash",
      "outputs": [
        {
          "name": "file",
          "type": "string"
        },
        {
          "name": "text",
          "type": "string"
        },
        {
          "name": "owner",
          "type": "address"
        }
      ],
      "payable": false,
      "stateMutability": "view",
      "type": "function"
    },
    {
      "constant": true,
      "inputs": [],
      "name": "getCounter",
      "outputs": [
        {
          "name": "",
          "type": "uint256"
        }
      ],
      "payable": false,
      "stateMutability": "view",
      "type": "function"
    }
  ],
  "bytecode": "0x608060405234801561001057600080fd5b506106dc806100206000396000f3fe608060405234801561001057600080fd5b50600436106100415760003560e01c80630c48ae99146100465780636b2fafa9146101985780638ada066e146102de575b600080fd5b6101966004803603604081101561005c57600080fd5b810190808035906020019064010000000081111561007957600080fd5b82018360208201111561008b57600080fd5b803590602001918460018302840111640100000000831117156100ad57600080fd5b91908080601f016020809104026020016040519081016040528093929190818152602001838380828437600081840152601f19601f8201169050808301925050505050505091929192908035906020019064010000000081111561011057600080fd5b82018360208201111561012257600080fd5b8035906020019184600183028401116401000000008311171561014457600080fd5b91908080601f016020809104026020016040519081016040528093929190818152602001838380828437600081840152601f19601f8201169050808301925050505050505091929192905050506102fc565b005b6101c4600480360360208110156101ae57600080fd5b81019080803590602001909291905050506103d5565b6040518080602001806020018473ffffffffffffffffffffffffffffffffffffffff1673ffffffffffffffffffffffffffffffffffffffff168152602001838103835286818151815260200191508051906020019080838360005b8381101561023a57808201518184015260208101905061021f565b50505050905090810190601f1680156102675780820380516001836020036101000a031916815260200191505b50838103825285818151815260200191508051906020019080838360005b838110156102a0578082015181840152602081019050610285565b50505050905090810190601f1680156102cd5780820380516001836020036101000a031916815260200191505b509550505050505060405180910390f35b6102e6610579565b6040518082815260200191505060405180910390f35b6103116001805461058390919063ffffffff16565b600181905550600080600060015481526020019081526020016000209050338160000160006101000a81548173ffffffffffffffffffffffffffffffffffffffff021916908373ffffffffffffffffffffffffffffffffffffffff1602179055508281600101908051906020019061038a92919061060b565b50818160020190805190602001906103a392919061060b565b507fac4612c20e5c4b67510dd6134b18879518ad68c004dd5609e3e4736fe17209c360405160405180910390a1505050565b606080600080600085815260200190815260200160002060000160009054906101000a900473ffffffffffffffffffffffffffffffffffffffff1690506000808581526020019081526020016000206001018054600181600116156101000203166002900480601f0160208091040260200160405190810160405280929190818152602001828054600181600116156101000203166002900480156104bb5780601f10610490576101008083540402835291602001916104bb565b820191906000526020600020905b81548152906001019060200180831161049e57829003601f168201915b505050505092506000808581526020019081526020016000206002018054600181600116156101000203166002900480601f01602080910402602001604051908101604052809291908181526020018280546001816001161561010002031660029004801561056b5780601f106105405761010080835404028352916020019161056b565b820191906000526020600020905b81548152906001019060200180831161054e57829003601f168201915b505050505091509193909250565b6000600154905090565b600080828401905083811015610601576040517f08c379a000000000000000000000000000000000000000000000000000000000815260040180806020018281038252601b8152602001807f536166654d6174683a206164646974696f6e206f766572666c6f77000000000081525060200191505060405180910390fd5b8091505092915050565b828054600181600116156101000203166002900490600052602060002090601f016020900481019282601f1061064c57805160ff191683800117855561067a565b8280016001018555821561067a579182015b8281111561067957825182559160200191906001019061065e565b5b509050610687919061068b565b5090565b6106ad91905b808211156106a9576000816000905550600101610691565b5090565b9056fea165627a7a72305820a1ad5f937c44dc70a5022138bc36e9488233d9080c5e1dd21bf989b3902851660029",
  "source": "pragma solidity >=0.4.21 <0.6.0;\nimport \"@openzeppelin/contracts/token/ERC721/ERC721Full.sol\";\n\ncontract FileHandler {\n    using SafeMath for uint256;\n\n\n    struct File {\n        address owner;\n        string fileHash;\n        string textHash;\n    }\n\n    mapping(uint256 => File) files;\n    uint256 file_ctr;\n    event NewFile();\n\n    function sendHash(string memory _fileHash, string memory _txtHash) public {\n        file_ctr = file_ctr.add(1);\n        File storage upload = files[file_ctr];\n        upload.owner = msg.sender;\n        upload.fileHash = _fileHash;\n        upload.textHash = _txtHash;\n\n        emit NewFile();\n    }\n\n    function getHash(uint256 _index)\n        public view returns (\n            string memory file,\n            string memory text,\n            address owner\n        ) {\n            owner = files[_index].owner;\n            file = files[_index].fileHash;\n            text = files[_index].textHash;\n    }\n\n    function getCounter() \n    public view returns(uint256) { \n        return file_ctr; \n    }\n}",
  "sourcePath": "/home/nash/Documents/Projects/Blockchain/Project/identity-wallet/wallet-web-app/contracts/FileHandler.sol",
  "compiler": {
    "name": "solc",
    "version": "0.5.8+commit.23d335f2.Emscripten.clang"
  },
  "schemaVersion": "3.0.11",
  "updatedAt": "2020-02-13T09:40:08.353Z",
  "devdoc": {
    "methods": {}
  },
  "userdoc": {
    "methods": {}
  }
}