{
  "contractName": "FileHandler",
  "abi": [
    {
      "constant": false,
      "inputs": [
        {
          "name": "_fileHash",
          "type": "string"
        },
        {
          "name": "_txtHash",
          "type": "string"
        }
      ],
      "name": "setHash",
      "outputs": [],
      "payable": false,
      "stateMutability": "nonpayable",
      "type": "function"
    },
    {
      "constant": true,
      "inputs": [
        {
          "name": "_index",
          "type": "uint256"
        }
      ],
      "name": "getHash",
      "outputs": [
        {
          "name": "file",
          "type": "string"
        },
        {
          "name": "text",
          "type": "string"
        },
        {
          "name": "owner",
          "type": "address"
        }
      ],
      "payable": false,
      "stateMutability": "view",
      "type": "function"
    },
    {
      "constant": true,
      "inputs": [],
      "name": "getCounter",
      "outputs": [
        {
          "name": "",
          "type": "uint256"
        }
      ],
      "payable": false,
      "stateMutability": "view",
      "type": "function"
    }
  ],
  "bytecode": "0x608060405234801561001057600080fd5b506106ef806100206000396000f3fe608060405260043610610057576000357c0100000000000000000000000000000000000000000000000000000000900463ffffffff1680636b2fafa91461005c5780638ada066e146101af578063e15fe023146101da575b600080fd5b34801561006857600080fd5b506100956004803603602081101561007f57600080fd5b8101908080359060200190929190505050610339565b6040518080602001806020018473ffffffffffffffffffffffffffffffffffffffff1673ffffffffffffffffffffffffffffffffffffffff168152602001838103835286818151815260200191508051906020019080838360005b8381101561010b5780820151818401526020810190506100f0565b50505050905090810190601f1680156101385780820380516001836020036101000a031916815260200191505b50838103825285818151815260200191508051906020019080838360005b83811015610171578082015181840152602081019050610156565b50505050905090810190601f16801561019e5780820380516001836020036101000a031916815260200191505b509550505050505060405180910390f35b3480156101bb57600080fd5b506101c46104dd565b6040518082815260200191505060405180910390f35b3480156101e657600080fd5b50610337600480360360408110156101fd57600080fd5b810190808035906020019064010000000081111561021a57600080fd5b82018360208201111561022c57600080fd5b8035906020019184600183028401116401000000008311171561024e57600080fd5b91908080601f016020809104026020016040519081016040528093929190818152602001838380828437600081840152601f19601f820116905080830192505050505050509192919290803590602001906401000000008111156102b157600080fd5b8201836020820111156102c357600080fd5b803590602001918460018302840111640100000000831117156102e557600080fd5b91908080601f016020809104026020016040519081016040528093929190818152602001838380828437600081840152601f19601f8201169050808301925050505050505091929192905050506104e7565b005b606080600080600085815260200190815260200160002060000160009054906101000a900473ffffffffffffffffffffffffffffffffffffffff1690506000808581526020019081526020016000206001018054600181600116156101000203166002900480601f01602080910402602001604051908101604052809291908181526020018280546001816001161561010002031660029004801561041f5780601f106103f45761010080835404028352916020019161041f565b820191906000526020600020905b81548152906001019060200180831161040257829003601f168201915b505050505092506000808581526020019081526020016000206002018054600181600116156101000203166002900480601f0160208091040260200160405190810160405280929190818152602001828054600181600116156101000203166002900480156104cf5780601f106104a4576101008083540402835291602001916104cf565b820191906000526020600020905b8154815290600101906020018083116104b257829003601f168201915b505050505091509193909250565b6000600154905090565b6104fc6001805461059490919063ffffffff16565b600181905550600080600060015481526020019081526020016000209050338160000160006101000a81548173ffffffffffffffffffffffffffffffffffffffff021916908373ffffffffffffffffffffffffffffffffffffffff1602179055508281600101908051906020019061057592919061061e565b508181600201908051906020019061058e92919061061e565b50505050565b6000808284019050838110151515610614576040517f08c379a000000000000000000000000000000000000000000000000000000000815260040180806020018281038252601b8152602001807f536166654d6174683a206164646974696f6e206f766572666c6f77000000000081525060200191505060405180910390fd5b8091505092915050565b828054600181600116156101000203166002900490600052602060002090601f016020900481019282601f1061065f57805160ff191683800117855561068d565b8280016001018555821561068d579182015b8281111561068c578251825591602001919060010190610671565b5b50905061069a919061069e565b5090565b6106c091905b808211156106bc5760008160009055506001016106a4565b5090565b9056fea165627a7a723058207a00de0df53474577a001ab6d43c4e88892f3ab6d0fea775ff740a922a4bcfb30029",
  "source": "pragma solidity 0.5.0;\nimport \"@openzeppelin/contracts/token/ERC721/ERC721Full.sol\";\nimport \"@openzeppelin/contracts/token/ERC721/ERC721Mintable.sol\";\n\ncontract FileHandler {\n    using SafeMath for uint256;\n\n\n    struct File {\n        address owner;\n        string fileHash;\n        string textHash;\n    }\n\n    mapping(uint256 => File) files;\n    uint256 file_ctr;\n    //event NewFile();\n\n    function setHash(string memory _fileHash, string memory _txtHash) public {\n        file_ctr = file_ctr.add(1);\n        File storage upload = files[file_ctr];\n        upload.owner = msg.sender;\n        upload.fileHash = _fileHash;\n        upload.textHash = _txtHash;\n\n        //emit NewFile();\n    }\n\n    function getHash(uint256 _index)\n        public view returns (\n            string memory file,\n            string memory text,\n            address owner\n        ) {\n            owner = files[_index].owner;\n            file = files[_index].fileHash;\n            text = files[_index].textHash;\n    }\n\n    function getCounter() \n    public view returns(uint256) { \n        return file_ctr; \n    }\n}",
  "sourcePath": "/home/nash/Documents/Projects/Blockchain/Project/identity-wallet/wallet-web-app/contracts/FileHandler.sol",
  "compiler": {
    "name": "solc",
    "version": "0.5.0+commit.1d4f565a.Emscripten.clang"
  },
  "schemaVersion": "3.0.11",
  "updatedAt": "2020-02-26T11:06:01.895Z",
  "devdoc": {
    "methods": {}
  },
  "userdoc": {
    "methods": {}
  }
}