{
  "contractName": "Login",
  "abi": [
    {
      "anonymous": false,
      "inputs": [
        {
          "indexed": false,
          "name": "message",
          "type": "string"
        },
        {
          "indexed": false,
          "name": "name",
          "type": "string"
        }
      ],
      "name": "SignatureVerified",
      "type": "event"
    },
    {
      "constant": false,
      "inputs": [
        {
          "name": "name",
          "type": "string"
        },
        {
          "name": "password",
          "type": "string"
        }
      ],
      "name": "verifyCredentials",
      "outputs": [
        {
          "name": "",
          "type": "uint256"
        }
      ],
      "payable": false,
      "stateMutability": "nonpayable",
      "type": "function"
    }
  ],
  "bytecode": "0x608060405234801561001057600080fd5b506105af806100206000396000f3fe608060405234801561001057600080fd5b506004361061002b5760003560e01c80636b3cc4b014610030575b600080fd5b6101806004803603604081101561004657600080fd5b810190808035906020019064010000000081111561006357600080fd5b82018360208201111561007557600080fd5b8035906020019184600183028401116401000000008311171561009757600080fd5b91908080601f016020809104026020016040519081016040528093929190818152602001838380828437600081840152601f19601f820116905080830192505050505050509192919290803590602001906401000000008111156100fa57600080fd5b82018360208201111561010c57600080fd5b8035906020019184600183028401116401000000008311171561012e57600080fd5b91908080601f016020809104026020016040519081016040528093929190818152602001838380828437600081840152601f19601f820116905080830192505050505050509192919290505050610196565b6040518082815260200191505060405180910390f35b6000808060018154018082558091505090600182039060005260206000200160006040518060400160405280600d81526020017f6e6173682070617373776f726400000000000000000000000000000000000000815250909190915090805190602001906102059291906104de565b505060008090505b6000805490508110156104d257606084846040516020018083805190602001908083835b602083106102545780518252602082019150602081019050602083039250610231565b6001836020036101000a03801982511681845116808217855250505050505090500182805190602001908083835b602083106102a55780518252602082019150602081019050602083039250610282565b6001836020036101000a038019825116818451168082178552505050505050905001925050506040516020818303038152906040529050806040516020018082805190602001908083835b6020831061031357805182526020820191506020810190506020830392506102f0565b6001836020036101000a038019825116818451168082178552505050505050905001915050604051602081830303815290604052805190602001206000838154811061035b57fe5b9060005260206000200160405160200180828054600181600116156101000203166002900480156103c35780601f106103a15761010080835404028352918201916103c3565b820191906000526020600020905b8154815290600101906020018083116103af575b50509150506040516020818303038152906040528051906020012014156104c4577f99b8262af12bb1ade5580fc7c1728d323429728c2dea6396f2cebb1e7c9e0e6585604051808060200180602001838103835260178152602001807f5375636365737366756c6c79204c6f6767656420696e21000000000000000000815250602001838103825284818151815260200191508051906020019080838360005b8381101561047e578082015181840152602081019050610463565b50505050905090810190601f1680156104ab5780820380516001836020036101000a031916815260200191505b50935050505060405180910390a16001925050506104d8565b50808060010191505061020d565b50600090505b92915050565b828054600181600116156101000203166002900490600052602060002090601f016020900481019282601f1061051f57805160ff191683800117855561054d565b8280016001018555821561054d579182015b8281111561054c578251825591602001919060010190610531565b5b50905061055a919061055e565b5090565b61058091905b8082111561057c576000816000905550600101610564565b5090565b9056fea165627a7a72305820470c7c33965c7e70e1f53fdfa634993d08ca1d283f9b006858344449626dc77e0029",
  "source": "pragma solidity >=0.4.21 <0.6.0;\n\ncontract Login {\n  event SignatureVerified(string message, string name);   \n\n  string[] users; \n\n  function verifyCredentials(string memory name, string memory password) public returns (uint) {\n    users.push(\"nash password\");\n    for(uint256 i=0; i<users.length; i++) {\n      string memory tmp_data = string(abi.encodePacked(name, password));\n      if (keccak256(abi.encodePacked((users[i]))) == keccak256(abi.encodePacked(tmp_data))) {\n        emit SignatureVerified(\"Successfully Logged in!\", name);\n        return 1;\n      }\n    }\n    return 0; \n  }\n}",
  "sourcePath": "/home/nash/Documents/Projects/Blockchain/Project/identity-wallet/wallet-web-app/contracts/Login.sol",
  "compiler": {
    "name": "solc",
    "version": "0.5.8+commit.23d335f2.Emscripten.clang"
  },
  "schemaVersion": "3.0.11",
  "updatedAt": "2020-02-09T00:54:19.749Z",
  "devdoc": {
    "methods": {}
  },
  "userdoc": {
    "methods": {}
  }
}