{
  "contractName": "Login",
  "abi": [
    {
      "constant": true,
      "inputs": [],
      "name": "getStatus",
      "outputs": [
        {
          "name": "",
          "type": "bool"
        }
      ],
      "payable": false,
      "stateMutability": "view",
      "type": "function"
    },
    {
      "constant": false,
      "inputs": [
        {
          "name": "addr",
          "type": "string"
        }
      ],
      "name": "verifyCredentials",
      "outputs": [],
      "payable": false,
      "stateMutability": "nonpayable",
      "type": "function"
    }
  ],
  "bytecode": "0x608060405234801561001057600080fd5b50610505806100206000396000f3fe608060405234801561001057600080fd5b50600436106100365760003560e01c80634e69d5601461003b578063e25e31a41461005d575b600080fd5b610043610118565b604051808215151515815260200191505060405180910390f35b6101166004803603602081101561007357600080fd5b810190808035906020019064010000000081111561009057600080fd5b8201836020820111156100a257600080fd5b803590602001918460018302840111640100000000831117156100c457600080fd5b91908080601f016020809104026020016040519081016040528093929190818152602001838380828437600081840152601f19601f82011690508083019250505050505050919291929050505061012e565b005b60008060009054906101000a900460ff16905090565b61013733610258565b6040516020018082805190602001908083835b6020831061016d578051825260208201915060208101905060208303925061014a565b6001836020036101000a03801982511681845116808217855250505050505090500191505060405160208183030381529060405280519060200120816040516020018082805190602001908083835b602083106101df57805182526020820191506020810190506020830392506101bc565b6001836020036101000a03801982511681845116808217855250505050505090500191505060405160208183030381529060405280519060200120141561023b5760016000806101000a81548160ff0219169083151502179055505b60008060006101000a81548160ff02191690831515021790555050565b606060008273ffffffffffffffffffffffffffffffffffffffff1660001b905060606040518060400160405280601081526020017f303132333435363738396162636465660000000000000000000000000000000081525090506060602a6040519080825280601f01601f1916602001820160405280156102e85781602001600182028038833980820191505090505b5090507f30000000000000000000000000000000000000000000000000000000000000008160008151811061031957fe5b60200101907effffffffffffffffffffffffffffffffffffffffffffffffffffffffffffff1916908160001a9053507f78000000000000000000000000000000000000000000000000000000000000008160018151811061037657fe5b60200101907effffffffffffffffffffffffffffffffffffffffffffffffffffffffffffff1916908160001a90535060008090505b60148110156104cd5782600485600c8401602081106103c657fe5b1a60f81b7effffffffffffffffffffffffffffffffffffffffffffffffffffffffffffff1916901c60f81c60ff16815181106103fe57fe5b602001015160f81c60f81b82600283026002018151811061041b57fe5b60200101907effffffffffffffffffffffffffffffffffffffffffffffffffffffffffffff1916908160001a90535082600f60f81b85600c84016020811061045f57fe5b1a60f81b1660f81c60ff168151811061047457fe5b602001015160f81c60f81b82600283026003018151811061049157fe5b60200101907effffffffffffffffffffffffffffffffffffffffffffffffffffffffffffff1916908160001a90535080806001019150506103ab565b5080935050505091905056fea165627a7a72305820b088438c6e9a59d0074628caad0130325bc6b107c326ccfa784ca13c567c74200029",
  "source": "pragma solidity >=0.4.21 <0.6.0;\n\ncontract Login {\n\n  bool status; \n\n  function addressToString(address _addr) internal pure returns (string memory) {\n      bytes32 value = bytes32(uint256(_addr));\n      bytes memory alphabet = \"0123456789abcdef\";\n\n      bytes memory str = new bytes(42);\n      str[0] = '0';\n      str[1] = 'x';\n      for (uint i = 0; i < 20; i++) {\n          str[2+i*2] = alphabet[uint(uint8(value[i + 12] >> 4))];\n          str[3+i*2] = alphabet[uint(uint8(value[i + 12] & 0x0f))];\n      }\n      return string(str);\n  }\n\n  function getStatus() public view returns (bool) {\n    return status;\n  }\n\n  function verifyCredentials(string memory addr) public  {\n    if (keccak256(abi.encodePacked((addr))) == keccak256(abi.encodePacked(addressToString(msg.sender)))) {\n      status = true;\n    }\n    status = false;\n  }\n}\n",
  "sourcePath": "/home/nash/Documents/Projects/Blockchain/Project/identity-wallet/wallet-web-app/contracts/Login.sol",
  "compiler": {
    "name": "solc",
    "version": "0.5.8+commit.23d335f2.Emscripten.clang"
  },
  "schemaVersion": "3.0.11",
  "updatedAt": "2020-02-13T09:40:08.089Z",
  "devdoc": {
    "methods": {}
  },
  "userdoc": {
    "methods": {}
  }
}