{
  "contractName": "TokenHandler",
  "abi": [
    {
      "constant": true,
      "inputs": [
        {
          "internalType": "uint256",
          "name": "",
          "type": "uint256"
        }
      ],
      "name": "tokens",
      "outputs": [
        {
          "internalType": "address",
          "name": "owner",
          "type": "address"
        },
        {
          "internalType": "string",
          "name": "name",
          "type": "string"
        },
        {
          "internalType": "string",
          "name": "token_hash",
          "type": "string"
        },
        {
          "internalType": "string",
          "name": "file_hash",
          "type": "string"
        },
        {
          "internalType": "string",
          "name": "file_address",
          "type": "string"
        },
        {
          "internalType": "string",
          "name": "credential_data",
          "type": "string"
        },
        {
          "internalType": "string",
          "name": "timestamp",
          "type": "string"
        },
        {
          "internalType": "bool",
          "name": "active",
          "type": "bool"
        }
      ],
      "payable": false,
      "stateMutability": "view",
      "type": "function"
    },
    {
      "constant": false,
      "inputs": [
        {
          "internalType": "string",
          "name": "_name",
          "type": "string"
        },
        {
          "internalType": "string",
          "name": "_token_hash",
          "type": "string"
        },
        {
          "internalType": "string",
          "name": "_file_hash",
          "type": "string"
        },
        {
          "internalType": "string",
          "name": "_file_address",
          "type": "string"
        },
        {
          "internalType": "string",
          "name": "_credential_data",
          "type": "string"
        },
        {
          "internalType": "string",
          "name": "_timestamp",
          "type": "string"
        }
      ],
      "name": "setToken",
      "outputs": [],
      "payable": false,
      "stateMutability": "nonpayable",
      "type": "function"
    },
    {
      "constant": true,
      "inputs": [
        {
          "internalType": "uint256",
          "name": "_index",
          "type": "uint256"
        }
      ],
      "name": "getToken",
      "outputs": [
        {
          "internalType": "string",
          "name": "name",
          "type": "string"
        },
        {
          "internalType": "string",
          "name": "token_hash",
          "type": "string"
        },
        {
          "internalType": "string",
          "name": "file_hash",
          "type": "string"
        },
        {
          "internalType": "string",
          "name": "file_address",
          "type": "string"
        },
        {
          "internalType": "string",
          "name": "credential_data",
          "type": "string"
        },
        {
          "internalType": "string",
          "name": "timestamp",
          "type": "string"
        },
        {
          "internalType": "bool",
          "name": "active",
          "type": "bool"
        }
      ],
      "payable": false,
      "stateMutability": "view",
      "type": "function"
    },
    {
      "constant": false,
      "inputs": [
        {
          "internalType": "uint256",
          "name": "_index",
          "type": "uint256"
        }
      ],
      "name": "revokeToken",
      "outputs": [],
      "payable": false,
      "stateMutability": "nonpayable",
      "type": "function"
    },
    {
      "constant": true,
      "inputs": [],
      "name": "getCounter",
      "outputs": [
        {
          "internalType": "uint256",
          "name": "",
          "type": "uint256"
        }
      ],
      "payable": false,
      "stateMutability": "view",
      "type": "function"
    }
  ],
  "bytecode": "0x608060405234801561001057600080fd5b506114bc806100206000396000f3fe608060405234801561001057600080fd5b50600436106100575760003560e01c80634f64b2be1461005c5780637dc9e79b1461035d5780638ada066e1461038b578063d3104ba5146103a9578063e4b50cb814610757575b600080fd5b6100886004803603602081101561007257600080fd5b8101908080359060200190929190505050610a25565b604051808973ffffffffffffffffffffffffffffffffffffffff1673ffffffffffffffffffffffffffffffffffffffff1681526020018060200180602001806020018060200180602001806020018815151515815260200187810387528e818151815260200191508051906020019080838360005b838110156101185780820151818401526020810190506100fd565b50505050905090810190601f1680156101455780820380516001836020036101000a031916815260200191505b5087810386528d818151815260200191508051906020019080838360005b8381101561017e578082015181840152602081019050610163565b50505050905090810190601f1680156101ab5780820380516001836020036101000a031916815260200191505b5087810385528c818151815260200191508051906020019080838360005b838110156101e45780820151818401526020810190506101c9565b50505050905090810190601f1680156102115780820380516001836020036101000a031916815260200191505b5087810384528b818151815260200191508051906020019080838360005b8381101561024a57808201518184015260208101905061022f565b50505050905090810190601f1680156102775780820380516001836020036101000a031916815260200191505b5087810383528a818151815260200191508051906020019080838360005b838110156102b0578082015181840152602081019050610295565b50505050905090810190601f1680156102dd5780820380516001836020036101000a031916815260200191505b50878103825289818151815260200191508051906020019080838360005b838110156103165780820151818401526020810190506102fb565b50505050905090810190601f1680156103435780820380516001836020036101000a031916815260200191505b509e50505050505050505050505050505060405180910390f35b6103896004803603602081101561037357600080fd5b8101908080359060200190929190505050610e2a565b005b610393610e5b565b6040518082815260200191505060405180910390f35b610755600480360360c08110156103bf57600080fd5b81019080803590602001906401000000008111156103dc57600080fd5b8201836020820111156103ee57600080fd5b8035906020019184600183028401116401000000008311171561041057600080fd5b91908080601f016020809104026020016040519081016040528093929190818152602001838380828437600081840152601f19601f8201169050808301925050505050505091929192908035906020019064010000000081111561047357600080fd5b82018360208201111561048557600080fd5b803590602001918460018302840111640100000000831117156104a757600080fd5b91908080601f016020809104026020016040519081016040528093929190818152602001838380828437600081840152601f19601f8201169050808301925050505050505091929192908035906020019064010000000081111561050a57600080fd5b82018360208201111561051c57600080fd5b8035906020019184600183028401116401000000008311171561053e57600080fd5b91908080601f016020809104026020016040519081016040528093929190818152602001838380828437600081840152601f19601f820116905080830192505050505050509192919290803590602001906401000000008111156105a157600080fd5b8201836020820111156105b357600080fd5b803590602001918460018302840111640100000000831117156105d557600080fd5b91908080601f016020809104026020016040519081016040528093929190818152602001838380828437600081840152601f19601f8201169050808301925050505050505091929192908035906020019064010000000081111561063857600080fd5b82018360208201111561064a57600080fd5b8035906020019184600183028401116401000000008311171561066c57600080fd5b91908080601f016020809104026020016040519081016040528093929190818152602001838380828437600081840152601f19601f820116905080830192505050505050509192919290803590602001906401000000008111156106cf57600080fd5b8201836020820111156106e157600080fd5b8035906020019184600183028401116401000000008311171561070357600080fd5b91908080601f016020809104026020016040519081016040528093929190818152602001838380828437600081840152601f19601f820116905080830192505050505050509192919290505050610e65565b005b6107836004803603602081101561076d57600080fd5b8101908080359060200190929190505050610f87565b604051808060200180602001806020018060200180602001806020018815151515815260200187810387528e818151815260200191508051906020019080838360005b838110156107e15780820151818401526020810190506107c6565b50505050905090810190601f16801561080e5780820380516001836020036101000a031916815260200191505b5087810386528d818151815260200191508051906020019080838360005b8381101561084757808201518184015260208101905061082c565b50505050905090810190601f1680156108745780820380516001836020036101000a031916815260200191505b5087810385528c818151815260200191508051906020019080838360005b838110156108ad578082015181840152602081019050610892565b50505050905090810190601f1680156108da5780820380516001836020036101000a031916815260200191505b5087810384528b818151815260200191508051906020019080838360005b838110156109135780820151818401526020810190506108f8565b50505050905090810190601f1680156109405780820380516001836020036101000a031916815260200191505b5087810383528a818151815260200191508051906020019080838360005b8381101561097957808201518184015260208101905061095e565b50505050905090810190601f1680156109a65780820380516001836020036101000a031916815260200191505b50878103825289818151815260200191508051906020019080838360005b838110156109df5780820151818401526020810190506109c4565b50505050905090810190601f168015610a0c5780820380516001836020036101000a031916815260200191505b509d505050505050505050505050505060405180910390f35b60006020528060005260406000206000915090508060000160009054906101000a900473ffffffffffffffffffffffffffffffffffffffff1690806001018054600181600116156101000203166002900480601f016020809104026020016040519081016040528092919081815260200182805460018160011615610100020316600290048015610af75780601f10610acc57610100808354040283529160200191610af7565b820191906000526020600020905b815481529060010190602001808311610ada57829003601f168201915b505050505090806002018054600181600116156101000203166002900480601f016020809104026020016040519081016040528092919081815260200182805460018160011615610100020316600290048015610b955780601f10610b6a57610100808354040283529160200191610b95565b820191906000526020600020905b815481529060010190602001808311610b7857829003601f168201915b505050505090806003018054600181600116156101000203166002900480601f016020809104026020016040519081016040528092919081815260200182805460018160011615610100020316600290048015610c335780601f10610c0857610100808354040283529160200191610c33565b820191906000526020600020905b815481529060010190602001808311610c1657829003601f168201915b505050505090806004018054600181600116156101000203166002900480601f016020809104026020016040519081016040528092919081815260200182805460018160011615610100020316600290048015610cd15780601f10610ca657610100808354040283529160200191610cd1565b820191906000526020600020905b815481529060010190602001808311610cb457829003601f168201915b505050505090806005018054600181600116156101000203166002900480601f016020809104026020016040519081016040528092919081815260200182805460018160011615610100020316600290048015610d6f5780601f10610d4457610100808354040283529160200191610d6f565b820191906000526020600020905b815481529060010190602001808311610d5257829003601f168201915b505050505090806006018054600181600116156101000203166002900480601f016020809104026020016040519081016040528092919081815260200182805460018160011615610100020316600290048015610e0d5780601f10610de257610100808354040283529160200191610e0d565b820191906000526020600020905b815481529060010190602001808311610df057829003601f168201915b5050505050908060070160009054906101000a900460ff16905088565b600080600083815260200190815260200160002060070160006101000a81548160ff02191690831515021790555050565b6000600154905090565b6001805401600181905550600080600060015481526020019081526020016000209050338160000160006101000a81548173ffffffffffffffffffffffffffffffffffffffff021916908373ffffffffffffffffffffffffffffffffffffffff16021790555086816001019080519060200190610ee39291906113e2565b5085816002019080519060200190610efc9291906113e2565b5083816004019080519060200190610f159291906113e2565b5082816005019080519060200190610f2e9291906113e2565b5084816003019080519060200190610f479291906113e2565b5081816006019080519060200190610f609291906113e2565b5060018160070160006101000a81548160ff02191690831515021790555050505050505050565b60608060608060608060008060008981526020019081526020016000206001018054600181600116156101000203166002900480601f01602080910402602001604051908101604052809291908181526020018280546001816001161561010002031660029004801561103b5780601f106110105761010080835404028352916020019161103b565b820191906000526020600020905b81548152906001019060200180831161101e57829003601f168201915b505050505096506000808981526020019081526020016000206002018054600181600116156101000203166002900480601f0160208091040260200160405190810160405280929190818152602001828054600181600116156101000203166002900480156110eb5780601f106110c0576101008083540402835291602001916110eb565b820191906000526020600020905b8154815290600101906020018083116110ce57829003601f168201915b505050505095506000808981526020019081526020016000206004018054600181600116156101000203166002900480601f01602080910402602001604051908101604052809291908181526020018280546001816001161561010002031660029004801561119b5780601f106111705761010080835404028352916020019161119b565b820191906000526020600020905b81548152906001019060200180831161117e57829003601f168201915b505050505093506000808981526020019081526020016000206003018054600181600116156101000203166002900480601f01602080910402602001604051908101604052809291908181526020018280546001816001161561010002031660029004801561124b5780601f106112205761010080835404028352916020019161124b565b820191906000526020600020905b81548152906001019060200180831161122e57829003601f168201915b505050505094506000808981526020019081526020016000206005018054600181600116156101000203166002900480601f0160208091040260200160405190810160405280929190818152602001828054600181600116156101000203166002900480156112fb5780601f106112d0576101008083540402835291602001916112fb565b820191906000526020600020905b8154815290600101906020018083116112de57829003601f168201915b505050505092506000808981526020019081526020016000206006018054600181600116156101000203166002900480601f0160208091040260200160405190810160405280929190818152602001828054600181600116156101000203166002900480156113ab5780601f10611380576101008083540402835291602001916113ab565b820191906000526020600020905b81548152906001019060200180831161138e57829003601f168201915b5050505050915060008089815260200190815260200160002060070160009054906101000a900460ff169050919395979092949650565b828054600181600116156101000203166002900490600052602060002090601f016020900481019282601f1061142357805160ff1916838001178555611451565b82800160010185558215611451579182015b82811115611450578251825591602001919060010190611435565b5b50905061145e9190611462565b5090565b61148491905b80821115611480576000816000905550600101611468565b5090565b9056fea265627a7a723158207b8cb3d9d04aaefb5d60f74d31dd8034eb0098ca63b00be250783b890b073aea64736f6c63430005100032",
  "source": "pragma solidity >=0.5.16;\n\ncontract TokenHandler {\n\n    struct Token {\n        address owner;\n        string name;\n        string token_hash;\n        string file_hash;\n        string file_address;\n        string credential_data;\n        string timestamp;\n        bool active;\n    }\n\n    mapping(uint256 => Token) public tokens;\n    uint256 token_ctr;\n\n    function setToken(string memory _name, string memory _token_hash, \n            string memory _file_hash, string memory _file_address,\n            string memory _credential_data, string memory _timestamp) public {\n        token_ctr = token_ctr + 1;\n        Token storage upload = tokens[token_ctr];\n        upload.owner = msg.sender;\n        upload.name = _name;\n        upload.token_hash = _token_hash;\n        upload.file_address = _file_address;\n        upload.credential_data = _credential_data;\n        upload.file_hash = _file_hash;\n        upload.timestamp = _timestamp;\n        upload.active = true;\n    }\n\n    function getToken(uint256 _index)\n        public view returns (\n            string memory name, string memory token_hash, \n            string memory file_hash, string memory file_address,\n            string memory credential_data, string memory timestamp, bool active) {\n        name = tokens[_index].name;\n        token_hash = tokens[_index].token_hash;\n        file_address = tokens[_index].file_address;\n        file_hash= tokens[_index].file_hash;\n        credential_data = tokens[_index].credential_data;\n        timestamp = tokens[_index].timestamp;\n        active = tokens[_index].active;\n    }\n\n    function revokeToken(uint256 _index) public {\n            tokens[_index].active = false;\n    }\n\n    function getCounter() \n    public view returns(uint256) { \n        return token_ctr; \n    }\n}",
  "sourcePath": "/home/nash/Documents/Projects/github.com/identity-wallet/wallet-web-app/contracts/TokenHandler.sol",
  "compiler": {
    "name": "solc",
    "version": "0.5.16+commit.9c3226ce.Emscripten.clang"
  },
  "schemaVersion": "3.2.3",
  "updatedAt": "2020-08-14T13:55:13.035Z",
  "networkType": "ethereum",
  "devdoc": {
    "methods": {}
  },
  "userdoc": {
    "methods": {}
  }
}